:020000040800F2
:1000000000200020A94400082D4400082F440008C7
:1000100000000000000000000000000000000000E0
:10002000000000000000000000000000A53B0008E8
:100030000000000000000000113C000831440008EE
:10004000F944000800000000F9440008F9440008E1
:10005000F9440008F9440008F9440008F94400088C
:1000600000000000F9440008F9440008F9440008C1
:10007000F944000839440008F94400080000000071
:10008000F9440008F944000800000000F9440008A1
:10009000F9440008F9440008F9440008F94400084C
:1000A000F9440008F9440008F9440008F94400083C
:1000B000F9440008000000000000000000000000FB
:1000C00010B5064C2378002B07D1054B002B02D02E
:1000D000044800E000BF0123237010BDD8010020B8
:1000E00000000000F4690008084B10B5002B03D095
:1000F0000749084800E000BF07480368002B00D10B
:1001000010BD064B002BFBD09847F9E7000000001C
:10011000DC010020F4690008D80100200000000084
:10012000002243088B4274D303098B425FD3030A36
:100130008B4244D3030B8B4228D3030C8B420DD349
:10014000FF22090212BA030C8B4202D312120902D7
:1001500065D0030B8B4219D300E0090AC30B8B4215
:1001600001D3CB03C01A5241830B8B4201D38B03C3
:10017000C01A5241430B8B4201D34B03C01A524168
:10018000030B8B4201D30B03C01A5241C30A8B42AB
:1001900001D3CB02C01A5241830A8B4201D38B0296
:1001A000C01A5241430A8B4201D34B02C01A52413A
:1001B000030A8B4201D30B02C01A5241CDD2C309AC
:1001C0008B4201D3CB01C01A524183098B4201D328
:1001D0008B01C01A524143098B4201D34B01C01A13
:1001E000524103098B4201D30B01C01A5241C3088B
:1001F0008B4201D3CB00C01A524183088B4201D3FA
:100200008B00C01A524143088B4201D34B00C01AE5
:100210005241411A00D20146524110467047FFE751
:1002200001B5002000F006F802BDC0460029F7D055
:1002300076E770477047C0464100090E4B1C70B509
:10024000DBB24602750AC40F012B14DDE0239B00CC
:100250006D07360BCB1800210A0D280012051C4D26
:1002600032435B052A405B0813435B00E4075B08ED
:100270002343190070BD002914D1002D1ED0280081
:1002800000F02CF80A281CDC0B232A001B1ADA4089
:10029000030015339D400F4B12031B1A5B05160B11
:1002A0005B0DD8E7002D06D0320B802636036D0794
:1002B0001643094BCFE7084B0026CCE70023002666
:1002C000C9E703002A000B3B9A400025E3E7C0463C
:1002D000FFFF0F8089030000FF0700001C2101239E
:1002E0001B04984201D3000C10391B0A984201D319
:1002F000000A08391B09984201D30009043902A2F7
:10030000105C40187047C04604030202010101015D
:1003100000000000000000000023C25C0133002A3E
:10032000FBD1581E7047000002B4714649084900CD
:10033000095C49008E4402BC7047C04603460B432B
:100340007FD4002243088B4274D303098B425FD3CE
:10035000030A8B4244D3030B8B4228D3030C8B42FA
:100360000DD3FF22090212BA030C8B4202D31212E0
:10037000090265D0030B8B4219D300E0090AC30BB5
:100380008B4201D3CB03C01A5241830B8B4201D362
:100390008B03C01A5241430B8B4201D34B03C01A4B
:1003A0005241030B8B4201D30B03C01A5241C30AC3
:1003B0008B4201D3CB02C01A5241830A8B4201D334
:1003C0008B02C01A5241430A8B4201D34B02C01A1E
:1003D0005241030A8B4201D30B02C01A5241CDD2C3
:1003E000C3098B4201D3CB01C01A524183098B420E
:1003F00001D38B01C01A524143098B4201D34B01F7
:10040000C01A524103098B4201D30B01C01A524159
:10041000C3088B4201D3CB00C01A524183088B42E0
:1004200001D38B00C01A524143088B4201D34B00C9
:10043000C01A5241411A00D201465241104670473B
:100440005DE0CA0F00D04942031000D34042534040
:1004500000229C4603098B422DD3030A8B4212D300
:10046000FC22890112BA030A8B420CD38901921132
:100470008B4208D3890192118B4204D389013AD06F
:10048000921100E08909C3098B4201D3CB01C01A44
:10049000524183098B4201D38B01C01A5241430957
:1004A0008B4201D34B01C01A524103098B4201D345
:1004B0000B01C01A5241C3088B4201D3CB00C01AB2
:1004C000524183088B4201D38B00C01A5241D9D2CA
:1004D00043088B4201D34B00C01A5241411A00D24B
:1004E0000146634652415B10104601D34042002B47
:1004F00000D54942704763465B1000D3404201B5C6
:100500000020FFF797FE02BD0029F8D016E77047DC
:100510008446101C62468C46191C634600E0C046A7
:100520001FB500F015FF002801D40021C8421FBDEF
:1005300010B500F06FFE4042013010BD10B500F064
:1005400007FF002801DB002010BD012010BDC046C0
:1005500010B500F0FDFE002801DD002010BD0120D7
:1005600010BDC04610B500F08FFE002801DC002051
:1005700010BD012010BDC04610B500F085FE00285A
:1005800001DA002010BD012010BDC046F8B5454677
:10059000DE4657464E460C03E0B54E00C90F88466E
:1005A0000D00610A440F0C43C70019035800DB0F0C
:1005B0009B464B0A510F0B43760D400D1900D2009C
:1005C000D84500D1AEE0351A002D00DCF6E0002859
:1005D0000FD1134300D1DBE06B1E002B00D037E1BD
:1005E000BA1A9742BF41641A7F42E41B01261700E2
:1005F00024E0C64B9E424DD080231B041943382D66
:1006000000DD07E11F2D00DD38E12020431B9A4665
:100610000B0050468340994613004846EB40184370
:10062000030050468240501E8241E9401A43BA1AE4
:10063000611A9742A441170064420C1B230262D541
:100640006402650A002D00D1DFE02800FFF746FEB6
:100650000300083B1F2B00DDD2E020223C00D21A11
:100660009D40D4409F4025439E4200DDC4E09E1B38
:10067000731C1F2B00DDF1E0202238002900D21A64
:10068000D840914097402C000143781E8741DC40C0
:1006900000260F437B0709D00F233B40042B05D0D6
:1006A0003B1DBB42BF417F42E4191F0023022CD5F2
:1006B000964B01369E4200D19AE04546944BFF0886
:1006C0001C406007760564020743240B760D002169
:1006D0002403230B0C0D8F4A24051C4314403305BF
:1006E00023435B00ED075B082B43380019003CBC3B
:1006F00090469946A246AB46F8BD6446044300D1F5
:1007000011E2040067467B07C6D145466007FF0833
:100710000743E4087D4B9E4230D024037605240B2A
:10072000760DD4E7331A9A46002B78DD002831D0B5
:1007300076488642AED08020000401435346382BD1
:1007400000DCE9E00A43511E8A410021D219BA4275
:10075000BF4109197C4217000C192302D3D56B4BFA
:1007600001369E4200D13AE10120694B1C407B08D2
:1007700007401F43E007074364088BE723003B4320
:1007800000D1CBE18022120314432403240B9EE703
:100790002E007FE70800104300D1B4E0581E002867
:1007A00000D0DEE0BA18BA429B4164185B42E418FC
:1007B000170001262302A6D50226D5E7002D6ED10B
:1007C000701C4005400D012800DCF9E0B81A844691
:1007D00087428041E51A40422D1A280200D489E060
:1007E000D71BBA4292411C1B5242A51AD84629E790
:1007F0004546002400276AE7454CF61A2C4049E795
:100800003D002838854000272EE73800FFF766FDB9
:1008100020301DE70A43511E8A41002107E7002BC3
:1008200000D0F3E0701C43055B0D012B00DCADE054
:10083000364B984200D1D1E0BA18BA42BF41641891
:100840007F42E419E707520817436408060021E7CE
:100850002E48854200D193E01D00D0E629001F3EBE
:10086000F140202B00D18DE04022D31A9D402F4330
:100870007D1EAF4100240F43002644E72B000800F3
:10088000203BD8400300202D00D17DE04020451BB7
:10089000A9400A43511E8A4100211A43C7E6002E8F
:1008A00050D01A4EB04257D080266B42994636043B
:1008B00034434B46382B00DDD6E01F2B00DD35E1FD
:1008C0002026F51A2600AE40B2463E00DE40AC4679
:1008D000350056462E436546AF407D1EAF41DC4095
:1008E0003743D71BBA4292410C1B5242A41A06004E
:1008F000D846A3E6644667462C4300D0A2E600250E
:100900000026002706E71E00C4E6C046FF070000D9
:10091000FFFF7FFFFFFF0F801F2B63DC2020C31A28
:10092000080098409C46834653461000D840030078
:100930005846184363469A40531E9A415346024311
:10094000D94003E726003E4306D0EB439946002BEF
:10095000C7D0944EB042ACD10C0017000600D84668
:1009600098E6904B9A450BD08246E7E6002800D0E7
:100970009EE01800104300D1E9E01C001700D846A3
:10098000884E87E6002572E7002182E723003B437B
:10099000002E00D0ABE0002B00D1E7E00B001343AA
:1009A00000D177E6BA18BA42BF4164187F42E41911
:1009B000230200D4F2E07C4B17001C40060069E6DD
:1009C00020003843002ED1D100285BD11C001443F5
:1009D00000D1A8E01C001700D8465BE60600002402
:1009E000002797E650460B002038C34099465346EF
:1009F000202B00D195E0402350461B1A99400A4312
:100A0000511E8A414B4600211A439FE6002E30D1E9
:100A100026003E4367D0DB439A46002B1CD0614E34
:100A2000B04260D05346382B00DD96E01F2B00DD2E
:100A30009FE02026F31A26009E409C46B34653466C
:100A40003E00DE4033005E461E4363469F407B1EF1
:100A50009F415346DC403743BF1897429241641888
:100A60005242A418060078E627437C1EA7410024C2
:100A700037E74C4EB04236D080265B4236049A4669
:100A80003443CFE71800104300D103E6B81A844678
:100A90006745AD41E01A6D42401B050200D42CE6CB
:100AA000D71BBA4292411C1B5242A41AD846F1E508
:100AB0001800104300D163E7F80867070743802058
:100AC000E4080003044208D0DD08054205D1D2083D
:100AD000590711430F002C00D8467B0FE4001C433C
:100AE000FF00304ED6E50C0017000600D2E5002BC3
:100AF00038D00B00134300D142E7F80867070743DB
:100B00008020E40800030442E7D0CB080342E4D18C
:100B1000D208490711430F001C00DEE7002700241C
:100B2000D5E500216BE700250027F3E54E462500BB
:100B3000203EF5404B462E00202B2DD04025ED1AAF
:100B4000AC4027437C1EA74100243743C9E68024DC
:100B500000252403134E0027DCE527437C1EA74114
:100B6000002479E70C0017000E4E93E50C001700E7
:100B700090E556462300203EF34099465346202BED
:100B80000ED0402356469B1B9C4027437C1EA7410A
:100B90004B4600241F435FE70024D2E71700B2E56D
:100BA0000024F2E7FF070000FFFF7FFFF0B5574684
:100BB0004546DE464E46E0B54C000E0387B0834600
:100BC00092461D008046360B640DCF0F002C4FD08F
:100BD0006F4B9C4235D08023420F1B04F600134319
:100BE00033439946C30098466A4B00269C4600232F
:100BF000644403932B031B0B9B466B00ED0F504685
:100C00005B0D01955ED0624A934253D05A46D100A3
:100C10008022400F120402430A4393465246D100F9
:100C20005C4A94460022634438006840844602903F
:100C3000E41A16430F2E00D9B4E0574BB6009B5967
:100C40009F460300334399466CD1002398460233F4
:100C500008260393CEE7CB464146039A0197022A22
:100C600065D1019B4A4C9C460023002298466BE0CC
:100C70000300334399464ED0002E00D1BCE1300032
:100C8000FFF72CFB03000B3B1C2B00DDACE11D220E
:100C9000D31A5A460100DA4008398E401300334314
:100CA00099465B468B40984600233C4C0026241A0C
:100CB00003939FE751465A46114329D10022934698
:100CC0000232B1E7594601431ED05B46002B00D1EA
:100CD0009EE15846FFF702FB03000B3B1C2B00DD97
:100CE0008FE102005946083A91408B461D21CB1AEC
:100CF0005146D9400B0059460B4351469B46914003
:100D0000264B00221B1A8FE7002301229B468BE70C
:100D10005146032288E70023984601330426002425
:100D2000039367E70323B14603930C2662E7032A84
:100D300000D15CE2019B012A00D0E4E113409C4613
:100D4000002300240022984600211203130B0A0DF1
:100D500012051A432305124C4046224013436246B3
:100D60005B00D2075B081343190007B03CBC9046F8
:100D70009946A246AB46F0BD002380229C46120352
:100D80009846034CE0E70023014C00229846DBE73D
:100D9000FF07000001FCFFFF5C6A00080DFCFFFF7D
:100DA000FFFF0F80D94500D939E100D134E100239C
:100DB00046464D469A46013C5B460A0E1B021A43C4
:100DC0000B02170C039313041B0C390028009046E8
:100DD0000193FFF7A5F90200019B83465A432800BF
:100DE00039009146FFF722FA350C09040D43A94555
:100DF0000DD95B464544013BA84500D93AE1A945D8
:100E000000D837E102235B429C464544E3444B460D
:100E1000EB1A390018000493FFF782F9019B0500D3
:100E20004343390004989946FFF700FA3304090454
:100E30001B0C0B43994509D943446A1E984500D9B8
:100E40001AE1994500D817E1023D43444A469B1AEE
:100E50005A4612042A4303999346100C0A0C9146F1
:100E600009045A46090C4E460D001204120C454363
:100E7000059151437243704352190E0CB2189542BA
:100E800003D980256D02AC466044150C0904120498
:100E9000090C28185218834200D2CEE000D1C8E0D5
:100EA0001D1A53469E1AB24592415242AB1A9A46B7
:100EB000984500D117E139001800FFF731F9019B7F
:100EC00005004343390050460493FFF7AFF90498F7
:100ED0000B04310C1943884209D941446B1E8845E3
:100EE00000D907E1884200D804E1023D4144049B57
:100EF000CB1A180039000493FFF712F9019B8246C0
:100F00004343390004980193FFF790F901980B04CB
:100F10003104090C194388420DD953464144013B21
:100F2000884500D9E8E0884200D8E5E002235B422A
:100F30009C464144E244019B2D04CE1A514629436C
:100F4000059D4F462A000B04080C1B0C5A434543D1
:100F50007B4378435B19170CFB189D4203D980250E
:100F60006D02AC4660441D0C12041B04120C2818C0
:100F70009B18864200D293E000D18EE001231943F2
:100F8000A04BE318002B00DC99E04A0700D09EE05C
:100F90005A46D20106D55A469B4B1A4080239346A7
:100FA000DB00E318994A934268DD0123029A984CCA
:100FB0001A400023944698460022C5E680224B46FC
:100FC000120313420AD05B46134206D11A4312039E
:100FD000120BAC4688468E4CB6E64B461A431203BB
:100FE000120BBC468A4CAFE603005A46283B9A4097
:100FF00000239146984657E65846FFF76FF9203090
:1010000040E603005246283B9A400021934677E68B
:10101000FFF764F920305FE6884500D2C7E64B460B
:10102000DE075D0843465B081E434346DB079A46DE
:10103000C2E60025924500D333E7039E5946B446E5
:10104000E244B245AD416D424544EB180139984543
:1010500007D2984200D97FE000D1BCE01D1A8B4630
:101060001FE79845FAD1039D5545F2D943468B4673
:101070001D1A16E79B46CAE61500E7E65A46C90858
:1010800052070A435B0590465C0D5A4601230299BC
:1010900052021940120B8C4656E6002B00D16FE726
:1010A00046444A1EB04529D91100864200D065E762
:1010B000039A934200D061E762E70121494201208F
:1010C000C21A382A21DD029B03409C4638E60F22D3
:1010D0000A40042A00D15BE70A00111D91429241A7
:1010E0005242934454E7474BE318002BE5DD0122BD
:1010F0005242F2E71D00FAE69A461CE7B04239D8A0
:101100006ED011003AE702933AE71F2A3CDC202315
:101110009B1A0C005846994098404B1E99415B46DB
:10112000D440D340204308431A00430709D00F237B
:101130000340042B05D00100081D88429B415B42FF
:10114000D21813023AD50123029A01241A4000232F
:10115000944698460022F7E5022149428C46039DB9
:10116000E344AC46E244AA45AD416D424544ED1826
:101170002D1A96E68A1E03994D008D4289414942F7
:101180004144761803958FE71F204042C31A584602
:10119000D8400300202A28D040205D46821A95407E
:1011A00029434A1E91411943072300220B4009D0CD
:1011B0000F2300220B400800042BBDD10100530770
:1011C0005202120BC90819430123884602990024D0
:1011D00019408C46B8E55245BED88B46002560E6DE
:1011E000039D9D42C6D3110062E70025D8E7802207
:1011F0005B4612031A43019B1203120B9C4688465E
:10120000034CA1E5FF030000FFFFFFFEFE07000007
:10121000FF070000F0B54F464646D6465C00C0B515
:101220001F03DB0F9A46174B0E034D008446804682
:10123000360B6D0DC90F91463F0B640D01209D4289
:1012400008D09C4201D0A5420BD01CBC90469946C8
:10125000A246F0BD63463343F7D1AC42F5D13A43E1
:10126000F3D10120BE42F0D1C845EED1514507D09F
:10127000002DEAD163461E433000461EB041E4E72C
:101280000020E2E7FF070000F0B54546DE4657467E
:101290004E46E0B51F033D0B2C4F0E034C00AB46F2
:1012A0005D008446360B640DC90F90466D0DDB0F53
:1012B000BC422AD0254FBD422DD0002C0FD1304347
:1012C0000700814678427841C0B2002D17D15F46B1
:1012D0003A4314D14B460020002B0AD006E0002DE3
:1012E00002D15846024301D0994218D04842012108
:1012F00008433CBC90469946A246AB46F0BD002848
:10130000F2D00120013B1843F3E737000743D1D067
:1013100002204042EDE75F461743CED0F8E7AC42EB
:10132000E4DC03DA481E01210843E2E75E45DDD82C
:1013300006D000205E45DCD20123481E1843D8E7C2
:10134000C445D3D80020C445F6D3D2E7FF07000038
:10135000F0B54E464546DE4657465C00E0B51F03F5
:10136000DB0F99462A4B0E034D00C90F8446360BFE
:101370006D0D8B4690463F0B640D9D4220D0244B53
:101380009C4222D0002D12D1304343424341DBB274
:10139000002C1FD0002B0CD04B460120013B0343F7
:1013A00018003CBC90469946A246AB46F0BD002CC6
:1013B00016D0CB4517D05B46594201230B43EFE7CC
:1013C000310002230143EBD1D9E739000223114355
:1013D000E6D1D7E73A43DDD100230028E0D0EAE7A1
:1013E0003A43E6D1E7E7A542E5DC05DBBE42E2D8B9
:1013F00007D00023BE42D3D25946012301390B4303
:10140000CEE7C445D7D80023C445F5D3C8E7C046C6
:10141000FF070000F0B557464546DE464E46E0B5AC
:101420000C0398464E00230B87B0070092469B465C
:10143000760DCD0F002E6BD06D4B9E4235D08024A3
:101440005B46420F2404DB0014431C43C30099464F
:10145000684BA3469C4600230027664402934346FC
:101460001C035A00DB0F5046240B520D984600D146
:1014700076E05F4B9A426DD08023410F1B040B43F3
:101480005C49E4008C461C43C30000206244414692
:10149000B6186940721C0191944607430F2F00D97A
:1014A000B0E0554ABF00D25997465B460343994680
:1014B00000D087E000239B46023308270293CEE743
:1014C00042460192022867D0032800D10EE201288B
:1014D00000D062E1002300240022994601990140D6
:1014E000CDB2002112030B0D120B1B051343434A0F
:1014F000240513401C436400ED0764082C43484650
:10150000210007B03CBC90469946A246AB46F0BDD0
:10151000034399464FD05B46002B00D189E15846E2
:10152000FEF7DCFE03000B3B1C2B00DD7AE11D22E5
:10153000D31A3A0001005C46DA4008398C401300A7
:101540008F4023439B46B94600232D4E0027361A71
:10155000029384E7534623432AD10024022096E7CE
:101560005346234320D0002C00D157E12000FEF742
:10157000B5FE03000B3B1C2B00DD49E11D21CB1AFE
:1015800051460200D9405346083A944093400C43D8
:101590001B4A121A00207AE70125019B144C1D40BA
:1015A0000023002299469CE70024002201206EE7D8
:1015B000534603206BE700239B4601330427002694
:1015C00002934CE7032381460C27029347E78022CE
:1015D0000023002512039946054C82E75C464B46E2
:1015E00002986FE75C464B46019502986AE7C04651
:1015F000FF07000001FCFFFF9C6A0008FFFF0F804F
:101600000DFCFFFF4A464946170C1A0C1B041B0C25
:1016100008041900000C41431500884619007D4359
:101620007943039589462900150045434D440295A9
:1016300045462D0CAA46029D5544A94506D98A4621
:10164000802149028946CA4451460391290C0491DC
:10165000414609042D04090C88462900250C240460
:101660004144240C059121004143884621007943DF
:101670008A466843414650448146080C48446F43BB
:10168000824503D98021490289464F44010C89468D
:1016900039004944029141460F0404993F0C8846A1
:1016A0000004C01980444146049159460F0C0904B6
:1016B000090C884659438A463900514389464146B8
:1016C0004A435146090C8B467B43D2185A449342F5
:1016D00003D980235B029B46D94451460904090C77
:1016E0008A46414661437C43130C12044B445244E6
:1016F000A1468A463C0041466C434D4351464D4409
:101700000F0C7D19A94503D980214902884644441C
:10171000049F0399B84641448B468345804141422A
:101720008846514608042F04000C3F185846029979
:1017300010188946904292414F44BA465242994607
:101740009346C244D144CB448F42BF41C2458941F4
:1017500099459B41934592417F4249422D0C52420B
:101760000F435B4213437F19FF185B463C19DB0DA7
:10177000059A64021C43430213435D1EAB415A4663
:10178000C00D034352021343E20156D501205A080B
:1017900003401343E207134364085A486044002897
:1017A0004DDD5A0709D00F221A40042A05D01A1D10
:1017B0009A429B415B42E4181300E20104D5802069
:1017C000514AC00014406044504A904200DDE3E6B4
:1017D0000125DB0862071A436402019B9146220B34
:1017E0004405640D1D407CE68022594612031142D7
:1017F00008D0144206D122431203120B45469946E3
:10180000434C6EE65B461A431203120B404C68E6EB
:1018100003005446283B9C400023B9E6FEF75EFDDA
:101820002030A6E60300283B9F400023BB46994694
:101830008AE6FEF753FD203074E6B446ADE7012595
:101840002A1A382A06DD019B00241D4000230022AD
:10185000994646E61F2A21DC20252000AD1A1E00ED
:10186000AB40A840D6405D1EAB4130431843D44046
:10187000430709D00F230340042B05D00300181D94
:1018800098429B415B42E418230221D50125019B2C
:1018900001241D4000230022994622E61F25210035
:1018A0006D42281AC1400800202A1DD05F35AA1AAF
:1018B000944023435C1EA341072503431D4000229F
:1018C000002D09D00F2200241A401800042AD6D176
:1018D000030065076402220BDB082B4301259946B0
:1018E000019B00241D40FCE50024E2E78022012545
:1018F0001203224301991203120B0D409946044C26
:10190000EFE5C046FF030000FFFFFFFEFE070000FB
:10191000FF070000F0B54646D6464F460C03C0B55B
:10192000CD0F4E00610A440F0C43C1005800400D1A
:1019300084468A460F001903500F490A0143C648DE
:10194000760DA846DB0FD200844500D1D8E00120F7
:101950004340AB4200D1A6E06046351A002D00DCC2
:1019600005E1002810D10B00134300D1D7E06B1E16
:10197000002B00D04BE153469F1ABA458041641AB0
:101980004042241A01261EE0B34B9E4248D08023D9
:101990001B041943382D00DD19E11F2D00DD4CE13A
:1019A00020230F005B1B10009A409F40E840531E0D
:1019B0009A41E940074317435346DF1B611ABA4572
:1019C000A44164420C1B230200D4C5E06402650AF2
:1019D000002D00D1F6E02800FEF780FC0300083B54
:1019E0001F2B00DDE9E020223C00D21A9D40D440AC
:1019F0009F4025439E4200DDDBE09E1B731C1F2B96
:101A000000DD0AE120223800D21A290097402C007C
:101A10009140D8407A1E9741DC40002601430F4395
:101A20007B0709D00F233B40042B05D03B1DBB4255
:101A3000BF417F42E4191F00230225D5864B0136A2
:101A40009E4200D1AFE0854B01251C404346620712
:101A5000FF08640276051743240B760D1D40002114
:101A60002403230B0C0D7E4A24051C43144033052C
:101A700023435B00ED075B082B43380019001CBCB7
:101A800090469946A246F0BD012543466207FF08ED
:101A90001743E4081D40704B9E4236D02403760560
:101AA000240B760DDBE76346F31A002B00DC94E091
:101AB0006046002835D068488642B1D080273F0470
:101AC0003943382B00DCFDE00A43170000217A1E61
:101AD0009741574457458041091944420C19230244
:101AE0003AD55D4B01369E4200D14BE101225B4B62
:101AF0001C407B0817401F43E207174364088FE729
:101B00000800104300D024E721E723003B4300D125
:101B1000B9E18022120314432403240B9FE72E0013
:101B20007EE70800104300D1CAE0581E8446002812
:101B300000D0E7E0524452458041641840422418E6
:101B400017000126230207D50226CFE764462C435F
:101B500000D1B3E12C0067467B0700D062E7630742
:101B6000FF081F4301254346E4081D4093E7002D6D
:101B700078D1751C6D056D0D012D00DCF2E050462D
:101B8000801A8245BF41651A7F42ED1B84462802B8
:101B900000D48CE05046171ABA4292410C1B5542B1
:101BA000651B984614E70125434600241D40002785
:101BB00055E72A4CF61A2C4032E73D00283885407C
:101BC000002717E73800FEF789FB203006E70A43B5
:101BD000170000217A1E9741EEE6002B00D0E5E0C9
:101BE000731C9C465B055B0D012B00DC9FE01A4BD0
:101BF0009C4500D1C5E052445245804164184042A2
:101C00002418E707520817436408664608E7124895
:101C1000854200D185E01D00BCE629001F3EF14051
:101C2000202B00D17FE04022D31A9D402F437D1E00
:101C3000AF4100240F4300268EE72B000F00203B0E
:101C4000DF40202D71D040235D1BA9400A43511E67
:101C50008A4100211743AFE6FF070000FFFF7FFF27
:101C6000FFFF0F80002E3ED0B34EB44545D08026F6
:101C700036046D423443382D00DDA8E01F2D00DD11
:101C80001FE1202627005046761BB740E840074357
:101C90005046B040461EB041EC403843171ABA4295
:101CA00092410C1B5242A41A664698468BE6644643
:101CB00067462C4300D08BE6002500260027EAE685
:101CC0001E00ADE61F2B60DC2027F81A0F008446AB
:101CD00087401000D840074360468240501E824132
:101CE000D9401743F5E626005046064305D0ED439C
:101CF000002DD3D0904EB445BDD10C0017006646E0
:101D000098468DE68C4883420BD06346D9E6002D79
:101D100000D096E00800104300D1E2E00C0017006C
:101D20009846854E7CE6002580E700218EE723005B
:101D300050460343002E00D0A8E0002B00D1DEE087
:101D40000B00134300D16BE65244524580416418A6
:101D5000404224181700230200D4FDE6774B664664
:101D60001C405DE6250050460543002ECFD1002DD6
:101D70004FD10C00144300D1A0E00C00170098468E
:101D80004EE666460024002785E61F000800203F37
:101D9000F8400700202B00D18EE04020C31A994064
:101DA0000A43511E8A410021174392E6002E14D1A6
:101DB00026005046064362D0DB43002B5CD18718D7
:101DC0009742924164185242A418664687E65046EC
:101DD0002043441EA041002460E7574EB4454ED036
:101DE000802636045B423443382B00DD7FE01F2B16
:101DF00000DD8BE0202627005046F61AB740D84079
:101E000007435046B040461EB0410743DC40BF1870
:101E1000D6E70D00154300D102E65046801A8245F0
:101E2000BF41651A7F42ED1B8446280200D48DE62F
:101E30005046171ABA4292410C1B5242A41A9846B5
:101E4000EEE50D00154300D16BE750466707C0086B
:101E500007438020E4080003044207D0CD08054270
:101E600004D12C009846D70849070F437B0FE400A4
:101E70001C43FF00304ED3E52F4EB445B4D10C00C7
:101E800017006646CCE500270024E8E5002B39D092
:101E90000B00134300D144E7C008670707438020C5
:101EA000E40800030442E1D0CB080342DED1D708A6
:101EB00049070F431C00D9E7002171E700250027DF
:101EC000E9E52E002700203EF740202D2FD04026A8
:101ED000751BAC4050462043441EA04100243843AB
:101EE000DCE6802400252403134E0027D3E550466A
:101EF00020430700781E87410024BF1860E70C00CC
:101F000017008DE50C0017000B4E89E51E00270019
:101F1000203EF740202B0CD04026F31A9C40504620
:101F20002043441EA04107430024BF1848E7002473
:101F3000D0E70024F3E7C046FF070000FFFF7FFF64
:101F400070B50E4E0D031C0349005B002D0B490DAF
:101F5000240B5B0DB14204D0084900208B4208D00D
:101F600070BD05430120002DFAD1044900208B42A9
:101F7000F6D114432000441EA041F1E7FF07000002
:101F800030B5134D0A034B00120B5B0DC90F002433
:101F9000AB4210DD0F4CA3420FDC80240E4D6403D6
:101FA0002243ED1A1F2D0BDD0C48C31ADA405442B0
:101FB000002900D11400200030BD094BCC18FAE7ED
:101FC000084CE840A44663449A400243EFE7C04609
:101FD000FE0300001D040000330400001304000091
:101FE000FFFFFF7FEDFBFFFF70B5002830D0C31768
:101FF000C4185C40C50F2000FEF770F9174B184A53
:102000001B1AD21A1F2A18DD164AD21A944000222F
:1020100024035B05240B5B0D0021100024030A0D33
:10202000240B12052243104C1B05224013435B0076
:10203000ED075B082B43190070BD210091400A0099
:102040000B21081AC4405B052403240B5B0DE3E756
:102050000025002300240022DEE7C0461E04000005
:102060003304000013040000FFFF0F8010B5041EAE
:1020700028D0FEF733F9154B154A1B1AD21A1F2A1E
:1020800015DD144AD21A9440002224035B05240B68
:102090005B0D0021100024030A0D240B12052243BE
:1020A0000D4C1B05224013435B00590810BD210055
:1020B00091400A000B21081AC4405B052403240B3D
:1020C0005B0DE6E7002300240022E2E71E04000087
:1020D0003304000013040000FFFF0F8010B5064A10
:1020E000136810210B431360002002F063F902F023
:1020F000CBF8002010BDC04600200240024A136801
:10210000013313607047C046440F0020014B18682C
:102110007047C046440F002070B5002811DB8308CB
:10212000144DC0339B005C5903221040C000FC32A8
:1021300016008640B44389010A40824022435A5126
:1021400070BDC0B20F230340083B9B0806339B00C1
:10215000094A944663445D6803221040C000FF248E
:1021600022008240954389010C4084402C435C60EE
:10217000E6E7C04600E100E000ED00E01F23184064
:102180001E3B8340014A13607047C04600E100E0F7
:1021900001380A4B98420FD8094A50600948036A2F
:1021A0001B021B0AC02109060B4303620023936034
:1021B00007331360002070470120FCE7FFFFFF009A
:1021C00010E000E000ED00E0042805D0054A1368A7
:1021D00004218B4313607047024A136804210B43A8
:1021E0001360F8E710E000E0F0B5C64600B582B035
:1021F00000237EE0DF080837BF003E5807251D405A
:10220000AD000F24AC40A6430C69AC40250035431B
:102210003D507EE0856864462540CE68BE4035432B
:10222000856045682C004546AC434D682E09012564
:1022300035409D402C434460C46865462C408D6801
:10224000BD402C43C4604C68E40051D5434DAE6999
:1022500001242643AE61AD692C400194019C9C0889
:10226000A51CAD003E4EAE5903251D40AD000F2705
:10227000AF40BE439027FF05B84265D0394FB84202
:1022800064D0394FB84263D0384FB8425AD005278E
:10229000AF403D0035430234A400314EA551344CCB
:1022A0002568D44326002E404F68FF0301D515430F
:1022B0002E002F4D2E606D682E0026404F68BF0304
:1022C00001D515432E002A4D6E60AD682E002640C4
:1022D0004F68FF0201D515432E00254DAE60ED6815
:1022E0002C404E68B60201D52A431400204AD4601F
:1022F00001330A681400DC402CD001249C40A04625
:102300002240F5D04D68022D00D173E7122D00D187
:1023100070E706685F0003252C00BC40E443A44638
:1023200026404C682540BD40354305604D686E1E13
:10233000012E00D86EE7112D00D16BE7122D00D0D1
:102340007AE767E70327A3E70027A1E701279FE7CD
:1023500002279DE702B004BC9046F0BD0010024089
:10236000000001400004004800080048000C00483C
:1023700000040140002A01D1816270478161FCE7BD
:1023800010B5041E59D04123C35C002B43D0242236
:102390004123E2542268136801218B4313602268B1
:1023A000274B61680B4013612268936825490B40F5
:1023B0009360E368012B34D0226884231B02A16858
:1023C0000B439360E368022B32D0226851681E4BA6
:1023D0000B4353602268D3681A490B40D3602168CD
:1023E000236962691343A26912021343CB60226816
:1023F000E369216A0B4313602268136801210B43D0
:102400001360002363641F314122A154236301320E
:10241000A354002010BD00224033C25401F05EFFDF
:10242000B5E7226880231B02A1680B439360C9E7CC
:102430002368802212015A60C7E70120EAE7C046FC
:10244000FFFFFFF0FF7FFFFF00800002F0B5412398
:10245000C35C202B01D00220F0BD2033C35C012BD4
:102460001CD04024012202554125242343550668EF
:1024700033689343336006683368094F3B403360E9
:10248000066833681943316001680B6813430B60B9
:1024900020234355002303550020DDE70220DBE71E
:1024A000FFEFFFFFF0B54123C35C202B01D00220DA
:1024B000F0BD2033C35C012B1AD040240122025509
:1024C00041252423435506683368934333600668E7
:1024D0003368084F3B4009021943316001680B68BB
:1024E00013430B6020234355002303550020DFE7EF
:1024F0000220DDE7FFF0FFFF70B582B00400036843
:10250000DB0736D5C14B5A680C231340042B28D067
:10251000BE4B5A680C231340082B1ED06368012B56
:102520004BD0002B50D1B94B1A68B9490A401A60F8
:102530001A68B8490A401A606368002B5CD0FFF73C
:10254000E5FD0500B14B1B689B0312D4FFF7DEFDD0
:10255000401B6428F6D90320EAE1AC4B5B68DB033F
:10256000DCD5AA4B1B689B0303D56368002B00D105
:10257000DBE123689B0762D5A44B5B680C221A42FF
:102580004CD0A24B5A680C231340082B42D0E3686E
:10259000002B76D09D4A136801210B431360FFF78F
:1025A000B5FD0500994B1B689B0761D4FFF7AEFD95
:1025B000401B0228F6D90320BAE1944A116880230F
:1025C0005B020B431360B7E7052B09D08F4B1A68EA
:1025D0008F490A401A601A688E490A401A60ABE7B0
:1025E0008A4B19688022D2020A431A601968802235
:1025F00052020A431A609FE7FFF788FD0500834BEC
:102600001B689B03B5D5FFF781FD401B6428F6D9F5
:1026100003208DE17D4B5B68DB03B8D47B4B1B68EB
:102620009B0704D5E368012B01D0012080E17749A5
:102630000B68F82293432269D20013430B6023688E
:102640001B0744D5E369002B2ED0704A536A012141
:102650000B435362FFF75AFD05006C4B5B6A9B0707
:1026600035D4FFF753FD401B0228F6D903205FE164
:1026700066490B68F82293432269D20013430B602A
:10268000DDE7624A136801218B431360FFF73EFDCB
:1026900005005E4B1B689B07D1D5FFF737FD401B3C
:1026A0000228F6D9032043E1584A536A01218B439B
:1026B0005362FFF72BFD0500544B5B6A9B0706D561
:1026C000FFF724FD401B0228F6D9032030E12368E0
:1026D0005B0775D54D4BDB69DB002ED44B4AD169C6
:1026E000802040050143D161D36903400193019BE0
:1026F0000125494B1B68DB0521D5A368012B32D08E
:10270000002B36D1414B1A6A01218A431A621A6A98
:1027100003318A431A62A368002B40D0FFF7F6FC0E
:1027200006003A4B1B6A9B0748D4FFF7EFFC801B5F
:102730003A4B9842F5D90320FAE00025D9E7364A0A
:10274000116880235B000B431360FFF7DFFC06007A
:10275000314B1B68DB05D0D4FFF7D8FC801B642805
:10276000F6D90320E4E0294A136A01210B431362DE
:10277000D1E7052B09D0254B1A6A01218A431A6239
:102780001A6A03318A431A62C5E7204B1A6A042188
:102790000A431A621A6A03390A431A62BBE7FFF74F
:1027A000B5FC0600194B1B6A9B0707D5FFF7AEFC6B
:1027B000801B1A4B9842F5D90320B9E0012D1ED099
:1027C0002368DB065AD56369012B2BD0053349D02A
:1027D0000E4B5A6B04210A435A635A6B03398A43DE
:1027E0005A63FFF793FC0500084B5B6B9B0745D5CD
:1027F000FFF78CFC401B0228F6D9032098E0034A1F
:10280000D36907490B40D361DAE7C04600100240A4
:10281000FFFFFEFFFFFFFBFF00700040881300007A
:10282000FFFFFFEF444B5A6B04210A435A635A6B74
:1028300003390A435A63FFF769FC05003E4B5B6BA3
:102840009B0706D4FFF762FC401B0228F6D9032041
:102850006EE039494B6BF8229343A269D2001343CF
:102860004B630BE0344A536B04218B435363536B2C
:10287000F4318B43A169C9000B435363236A002BD6
:1028800055D02D4A51680C220A40082A52D0022BFA
:1028900012D0294A136829490B401360FFF736FC10
:1028A0000400254B1B689B013DD5FFF72FFC001B47
:1028B0000228F6D903203BE01F4A13681F490B404A
:1028C0001360FFF723FC05001B4B1B689B0106D51B
:1028D000FFF71CFC401B0228F6D9032028E0164B0A
:1028E000DA6A0F218A43E16A0A43DA625A681449B4
:1028F0000A40A16A606A01430A435A60196880224B
:1029000052040A431A60FFF701FC04000A4B1B68DB
:102910009B0106D4FFF7FAFB001B0228F6D903201F
:1029200006E0002004E0002002E0012000E000209A
:1029300002B070BD0120FBE700100240FFFFFFFE68
:10294000FFFFC2FF30B589B004AA154B180032C88A
:1029500032C2110002680A606A46103313CB13C2F8
:102960001B6813600F4B5A680C231340082B13D1BC
:10297000910C0733194004A8445C0A49C96A0B400A
:102980006946C95CD30302D40748604305E00748A1
:10299000FDF7C6FB604300E0044809B030BDC04607
:1029A000106A00080010024000093D0000127A0081
:1029B00070B505000C004D4B1A68012313408B4283
:1029C0000BD24A490B680122934323430B600B68E7
:1029D0001A40944201D0012085E02B689B0706D560
:1029E000434A5368F0218B43A9680B4353602B681B
:1029F000DB074CD56B68012B21D0022B25D03C4A3C
:102A00001268920700D46FE039494A680320824374
:102A100013434B60FFF77AFB06006B68012B1AD05B
:102A2000022B26D0324B5B680C221A422FD0FFF7C4
:102A30006DFB801B2F4B9842F4D9032053E02C4AA6
:102A400012689203E0D401204DE0294A12689201F5
:102A5000DAD4012047E0264B5A680C231340042B9C
:102A600015D0FFF753FB801B224B9842F3D903206C
:102A700039E01F4B5A680C231340082B07D0FFF78F
:102A800045FB801B1B4B9842F3D903202BE0174BCF
:102A90001A68012313409C420BD214490B6801228F
:102AA000934323430B600B681A40944201D00120EA
:102AB00019E02B685B0706D50D4A53680E490B4099
:102AC000E9680B435360FFF73DFF094B5A68120951
:102AD0000F231340094AD35CD840094B18600020EB
:102AE00001F068FC002070BD0120FCE700200240DE
:102AF0000010024088130000FFF8FFFF446A00083E
:102B000004000020014B18687047C04604000020F4
:102B100010B5FFF7F7FF044B5A68120A072313405A
:102B2000024AD35CD84010BD00100240546A00082D
:102B300010B5072303600A4B5C6803222240426001
:102B40005C68F022224082605B68E022D200134081
:102B5000C360044B1A68012313400B6010BDC046CC
:102B6000001002400020024070B582B004000368EB
:102B7000DB0335D53C4BDB69DB0048D43A4AD169ED
:102B8000802040050143D161D36903400193019B3B
:102B90000125364B1B68DB053BD5334B1B6AC02236
:102BA0009200134013D061680A4093420FD02E4B1D
:102BB000186A2F4A02401E6A802149023143196275
:102BC000196A2C4E314019621A62C30735D4264A5D
:102BD000136A27490B4061680B431362012D3BD0F8
:102BE0002368DB0706D5204A136B03218B43A168BA
:102BF0000B43136323689B0633D51B4A136B1021C9
:102C00008B43E1680B431363002002B070BD0025C5
:102C1000BFE7164A116880235B000B431360FFF780
:102C200075FA0600114B1B68DB05B6D4FFF76EFA88
:102C3000801B6428F6D90320E7E7FFF767FA060050
:102C4000094B1B6A9B07C2D4FFF760FA801B0A4B33
:102C50009842F5D90320D8E7D36908490B40D361DE
:102C6000BEE70020D1E7C0460010024000700040DF
:102C7000FFFCFFFFFFFFFEFF88130000FFFFFFEFD9
:102C800070470368DA6801210A43DA600268136852
:102C90000B431360002070477047704770477047C0
:102CA00010B5040003681A6992070FD5DA68920715
:102CB0000CD5032252421A610123037703689B69F2
:102CC0009B0763D0FFF7E9FF0023237723681A6986
:102CD000520712D5DA6852070FD5052252421A61FF
:102CE0000223237723689A69C0239B001A4253D09A
:102CF0002000FFF7D2FF0023237723681A69120709
:102D000010D5DA6812070DD5092252421A61042340
:102D100023772368DB699B0745D02000FFF7BDFFC1
:102D20000023237723681A69D20612D5DA68D206FF
:102D30000FD5112252421A61082323772368DA69DA
:102D4000C0239B001A4235D02000FFF7A6FF0023C6
:102D5000237723681A69D20702D5DA68D20730D4FC
:102D600023681A69120602D5DA68120630D423687D
:102D70001A69520602D5DA68520630D423681A69F5
:102D8000920602D5DA68920630D410BDFFF784FFB0
:102D90002000FFF783FF97E72000FFF77DFF20006B
:102DA000FFF77CFFA7E72000FFF776FF2000FFF783
:102DB00075FFB5E72000FFF76FFF2000FFF76EFFFC
:102DC000C5E7022252421A61200001F057F9C7E715
:102DD000812252421A61200000F075F8C7E74122B3
:102DE00052421A612000FFF75AFFC7E721225242E0
:102DF0001A61200000F066F8C7E7000003681D4A6A
:102E0000904232D01C4A90422FD01A4A90420ED0A3
:102E1000194A90420BD0194A904208D0184A904261
:102E200005D0184A904202D0174A904203D1174A5F
:102E30001340CA681343802293434A6913430360D3
:102E40008B68C3620B6883620A4B984208D00C4BB4
:102E5000984205D00B4B984202D00B4B984201D1BF
:102E60000B690363012343617047702293434A68EF
:102E70001343CAE7002C014000040040002000403A
:102E8000004001400044014000480140FFFCFFFFBA
:102E900070B5041E14D03D23C35C002B0AD03D2521
:102EA00002236355211D2068FFF7A8FF0123635506
:102EB000002070BD00223C33C254FFF7E1FEEEE774
:102EC0000120F6E77047704770B504008368026917
:102ED000134342691343C269134301680A685F4898
:102EE000024013430B60226853685D490B40E16860
:102EF0000B435360A369226A134321688A685948C7
:102F0000024013438B602568574B9D4220D0574B9E
:102F10009D4231D0102380221202E16991422FD0CC
:102F2000022B00D17FE000D86FE0042B00D186E0B7
:102F3000082B00D08FE06168480880231B029C4664
:102F40006044FDF7EDF80004000CE860002041E06B
:102F5000474B1A6B03231340012B09D0002B05D0DC
:102F6000022B07D0032B09D01023D4E70023D2E78C
:102F70000423D0E70823CEE70023CCE70223CAE7E7
:102F8000022B28D00FD9042B30D0082B3AD16368FC
:102F9000580880235B029C4660446168FDF7C0F8D6
:102FA00083B200200CE0002B2CD1FFF7B1FD4000D4
:102FB00063685B08C0186168FDF7B2F883B200204F
:102FC0000F22190091430A005B1007210B401343A5
:102FD0002268D36070BD63685808264B9C466044E5
:102FE0006168FDF79DF883B20020E9E7FFF7AAFCCE
:102FF000400063685B08C0186168FDF791F883B210
:103000000020DDE701200023DAE7002B23D1FFF7C2
:103010007FFD61684B08C018FDF782F80004000CC2
:10302000E8600020D6E761684808134B9C4660447E
:10303000FDF776F80004000CE8600020CAE7FFF70F
:1030400081FC61684B08C018FDF76AF80004000CA9
:10305000E8600020BEE70120BCE7C046F369FFFF3F
:10306000FFCFFFFFFFF4FFFF0038014000440040A6
:10307000001002400024F40000127A00436ADB07CB
:1030800006D5026853682C490B40816A0B43536094
:10309000436A9B0706D50268536828490B40C16AFA
:1030A0000B435360436A5B0706D5026853682449A3
:1030B0000B40016B0B435360436A1B0706D5026844
:1030C000536820490B40416B0B435360436ADB0656
:1030D00006D5026893681C490B40816B0B439360D3
:1030E000436A9B0606D50268936818490B40C16B7A
:1030F0000B439360436A5B060BD50268536814491F
:103100000B40016C0B43536080235B03026C9A42BB
:103110000AD0436A1B0606D5026853680D490B4066
:10312000816C0B4353607047026853680A490B4037
:10313000416C0B435360ECE7FFFFFDFFFFFFFEFF19
:10314000FFFFFBFFFF7FFFFFFFEFFFFFFFDFFFFF43
:10315000FFFFEFFFFFFFF7FFFFFF9FFF0023C366A7
:1031600020226921425401314254483283540020C4
:103170007047000010B5041E30D06923C35C002BDB
:1031800022D024226923E2542268136801218B4350
:1031900013602000FFF798FE012814D0636A002B0B
:1031A00018D1226853680E490B4053602268936817
:1031B00008218B4393602268136807390B4313601F
:1031C0002000FFF7CBFF10BD00226833C25401F08E
:1031D000C9F8D6E72000FFF751FFE2E70120F2E748
:1031E000FFF7FFFFF0B5C64600B505000F0016005B
:1031F0009846069C2B68DB693A009A4313005A42B2
:103200005341B3421ED1631CF4D0002C05D0FEF70D
:103210007DFF4346C01A8442ECD22A6813680B49EA
:103220000B4013602A689368A331FF318B4393608E
:1032300020236922AB540132AB5400224833EA54B4
:10324000032000E0002004BC9046F0BD5FFEFFFFBD
:10325000F0B585B004000F0016001D006923C35CA3
:10326000202B02D0022005B0F0BD00295BD0002A3F
:103270005BD080235B0182689A4205D06823E35CBF
:10328000012B08D10220EEE70369002BF6D1CB0712
:10329000F4D50120E7E701226823E2540023E36626
:1032A00020326933E254FEF731FF03905023E65297
:1032B0000233E65203E03B7822681385013752233C
:1032C000E35A9BB2002B1CD05222A35A013B9BB263
:1032D000A3520095039B002280212000FFF782FF6C
:1032E000002824D180235B01A2689A42E3D123699C
:1032F000002BE0D13B88DB05DB0D2268138502370C
:10330000DDE70095039B002240212000FFF76AFFC4
:10331000002801D00320A6E720226923E2540022DE
:10332000013BE2549FE701209DE701209BE703203A
:1033300099E70000F0B585B004000F0016001D00ED
:103340006A23C35C202B02D0022005B0F0BD002907
:1033500070D0002A70D080235B0182689A4205D029
:103360006823E35C012B08D10220EEE70369002B00
:10337000F6D1CB07F4D50120E7E701226823E25418
:103380000023E36621326A33E254FEF7BFFE039066
:103390005823E6520233E652A36880225201934238
:1033A0000AD0002B05D12369002B10D1FF225C33FA
:1033B000E2525C23E65A14E02369002B03D1204A31
:1033C0005C33E252F5E7FF225C23E252F1E77F2211
:1033D0005C23E252EDE723689B8CF2B213403B7012
:1033E00001375A23E35A9BB2002B1BD05A22A35A0F
:1033F000013B9BB2A3520095039B00222021200099
:10340000FFF7F0FE002819D180235B01A2689A42E1
:10341000E1D12369002BDED123689B8C33403B80B4
:103420000237DEE720226A33E2540022023BE254F4
:1034300000208AE7012088E7012086E7032084E74F
:10344000FF010000842801D0033070470020FCE712
:1034500010B500F0B3F9002010BDF0B585B00D0037
:103460004668076804690823C05EFFF7EBFFA2B255
:1034700003AB019300902B003900300000F06EF98F
:10348000012802D1039805B0F0BD0020FBE710B57C
:10349000002800D1013000F0AFFA002010BD10B5B7
:1034A00000F038FB012801D000F0D4FB10BD030070
:1034B00008334360012252428260C36003610023EB
:1034C0000360704700230361704743684B609A684C
:1034D0008A609A68516099600861036801330360EB
:1034E000704730B50C68631C02D00200083202E05D
:1034F000026904E01A0053681D68AC42FAD25368AE
:103500004B6099608A605160086103680133036011
:1035100030BD03694268816891608268416851608A
:103520005A68904205D0002202611A68501E186045
:10353000704782685A60F6E70A4B9B6A1B68002B4B
:1035400009D10133002B08D1064B9A6AD268D268A0
:103550005268DA6270470023F4E701225242014BBD
:10356000DA62F7E7F401002010B50400006B00F008
:1035700065FC200000F062FC10BD0000F0B583B0D7
:1035800000900193089C0A9E1D4B9C466244920049
:10359000336B9C46624407239A43170000230F2B8A
:1035A00009D8C8180578F218343215700278002A44
:1035B00001D00133F3E700224323F254062C00D953
:1035C0000624F46274640025B564301DFFF77AFFA9
:1035D00030001830FFF776FF366107231C1BB461FB
:1035E0007662F5644933F554019A0099380000F089
:1035F000C9FA3060099B002B00D01E6003B0F0BDFB
:10360000FFFFFF3FF8B5002408E0A3001B199A0054
:10361000104830308018FFF74AFF0134062CF4D9E7
:103620000D4C27003C373800FFF741FF260050368D
:103630003000FFF73CFF074D28001430FFF737FF3D
:1036400020006430FFF733FF2800FFF730FFAF6240
:10365000A667F8BDF40100207402002010B5040034
:1036600000F0AEFA1F4AD36F0133D3671E4B1B68BD
:10367000002B2BD01C4B5B68002B07D11A4B1B680F
:10368000DB6AE26A934201D8174B1C60164B9A68BA
:1036900001329A60E26ADB689A4201D9124BDA6021
:1036A000211D93009B189A00104830308018FFF7B6
:1036B0000CFF00F091FA0C4B5B68002B05D00A4B15
:1036C0001B68DA6AE36A9A4208D310BD064B1C6095
:1036D000D36F012BDAD1FFF795FFD7E700F064FA3B
:1036E000F3E7C04674020020F4020020F401002039
:1036F00070B504000D00164B1E6918680430FFF702
:1037000008FF631C12D03419114B1B685C60A64281
:1037100015D8104DA86A0E4B19680431FFF7E1FE69
:10372000EB6A9C4212D20B4BDC620FE0002DEAD018
:10373000074B196804310748FFF7C7FE06E0064B40
:10374000986F034B19680431FFF7CBFE70BDC0467C
:10375000F4020020F401002074020020F0B587B0CC
:103760000490059114001F00900000F003FB061E5A
:103770001ED0542000F0FEFA051E15D00663002D61
:1037800018D00023039302950D9B01930C9B00938B
:103790003B00220005990498FFF7F0FE2800FFF790
:1037A0005DFF012007B0F0BD300000F047FBE6E709
:1037B0000025E4E701204042F4E7000000B583B0B3
:1037C0000F4B1C3301930023009380220D490E48B8
:1037D000FFF7C4FF012803D0431C0ED003B000BD87
:1037E00072B601225242094BDA62054B02325A602C
:1037F00000221A6100F054FAF0E772B6FEE7C04604
:10380000F4020020DC6A00087D3A0008F401002080
:10381000024A9369013393617047C046F402002065
:10382000F8B53C4B9B69002B68D13A4B1D690135BB
:103830001D61002D12D1384B9B6A1B68002B01D0F3
:1038400072B6FEE7344A916A344B986F906299677A
:10385000304A136A01331362FFF76EFE2E4BDB6AA8
:103860009D423FD200242B4B1B68DA6A93009B18C1
:103870009A00294B9B181B6B012B44D9012442E071
:103880000124254B9B6A1B68002B2DD00023002BA5
:103890002CD1214B9B6ADB68DE6873689D422AD37A
:1038A000371D3800FFF735FEB36A002B03D0300018
:1038B0001830FFF72EFEF26A164BDB689A4201D9E8
:1038C000144BDA6093009B189A001348303080182C
:1038D0003900FFF7FAFDF26A0E4B1B68DB6A9A4269
:1038E000CED2CEE70024CCE70133D0E7012252420A
:1038F000094BDA62B7E7084AD362B4E7054A536A6C
:10390000013353620024034B9B6A002B00D0012437
:103910002000F8BDF4020020F40100207402002011
:1039200070B5324B9B69002B01D172B6FEE700F0F7
:1039300047F92E4B9A69013A9A619B69002B51D144
:103940002B4BDB6F002B04D1002400F045F9200045
:1039500070BD0024274B5B69002B24D0254B1B6ACC
:10396000DC6820001830FFF7D4FD251D2800FFF784
:10397000D0FDE26A1D4BDB689A4201D91B4BDA602D
:1039800093009B189A001B48303080182900FFF7DD
:103990009CFD164B1B68DB6AE26A9A42DAD301226D
:1039A000124B9A62D6E7002C01D0FFF7C5FD0F4BF2
:1039B0005C6A002C0AD10D4B9B6A002B14D000F0DE
:1039C000F3F80124C1E7013C002C07D0FFF728FFE2
:1039D0000028F8D00122054B9A62F4E70022034B3D
:1039E0005A62E8E70024B0E70024AEE7F4020020C2
:1039F00074020020F401002010B5041E0ED00A4B02
:103A00009B69002B01D072B6FEE7FFF701FF002192
:103A10002000FFF76DFEFFF783FF00E00020002885
:103A200001D100F0C1F810BDF402002070B5114BB7
:103A30005B69002B1CD0FFF7EBFE0F4B5C6EFFF7B2
:103A40006FFF002CF3D000F0BBF80B4C236FDD6848
:103A5000281DFFF75EFDE36F013BE367054A5369ED
:103A6000013B536100F0B8F82800FFF77DFDDEE769
:103A700070BDC046F40200207402002010B5FFF7AC
:103A8000D5FF034B1B6B012BF9D900F08DF8F6E73E
:103A9000F401002010B51D4B9B69002B0FD11B4B6F
:103AA00000229A62DB689A00D2189100184A5218D4
:103AB000126B002A09D1002B05D0013BF3E701224C
:103AC000124B9A6210BD72B6FEE7114A9900CC18EB
:103AD000A0001018446B646844633032C918880031
:103AE0000830121894420AD09A00D2189100084A5D
:103AF0005218526BD168054A1160D360E2E76068E2
:103B00008900034A52185063EEE7C046F4020020D1
:103B1000F4010020064B5B68002B05D0044B9B6929
:103B2000002B03D1022070470120FCE70020FAE7B8
:103B3000F4020020034B1B68013301D072B6FEE78C
:103B400072B6FEE700000020000000000000000048
:103B50000B4A13681868203080F30988022080F32C
:103B60001488BFF36F8F3FBCAE4608BC04BC62B67E
:103B70001847C046C046C046C046C046C046C046BC
:103B8000F402002010B5031F802464041C60043B71
:103B90001960043B02491960143B1A60403810BD9B
:103BA000353B00087047000080225205034B1A6025
:103BB000BFF34F8FBFF36F8F7047C04604ED00E037
:103BC00072B6044A136801331360BFF34F8FBFF31B
:103BD0006F8F704700000020064B1B68002B01D13F
:103BE00072B6FEE7013B034A1360002B00D162B6B8
:103BF0007047C04600000020EFF3108072B6704797
:103C0000002080F3108870470000000000000000D2
:103C1000EFF309800E4B1A6820381060F0C044465C
:103C20004D4656465F46F0C008B572B6FFF732FF04
:103C300062B60CBC116808681030F0C8A046A946EE
:103C4000B246BB4680F309882038F0C81847C04602
:103C5000F402002010B5FFF7CFFF0400FFF7E0FDEE
:103C6000002803D080225205024B1A602000FFF783
:103C7000C8FF10BD04ED00E010B5064B1868FA212E
:103C80008900FCF74DFA0138034B18600722034BFB
:103C90001A6010BD0400002014E000E010E000E015
:103CA00010B50A4B1968FF2212040A431A601968FA
:103CB000FF2212060A431A60FFF7DEFF0022044BC0
:103CC0001A60FFF745FFFFF735FFC04620ED00E023
:103CD0000000002010B5114A53071BD0D11D072347
:103CE0009943C0231B015B1A9B180A000C490A6008
:103CF00000204860D318083B0724A3438B6058601A
:103D00001860981A50601360C860086180231B0611
:103D10004B6110BDC0231B01E8E7C0462003002013
:103D2000200F002010B5124B1A68824219D359682F
:103D30005C18A04203D14068091859601800416816
:103D40004418A24211D10A4CA468A2420BD0526876
:103D5000891841601A6812680260984200D01860A1
:103D600010BD1300E0E70460F7E70260F5E7C04626
:103D7000200F002070B50400FFF74AFD2E4B9B6812
:103D8000002B0FD02C4B5B6923424AD1002C0CD066
:103D90000834630709D007239C430834234204D026
:103DA00072B6FEE7FFF796FFECE7002C3BD0224B04
:103DB0001B699C4239D8204B1D6801E02B0015007F
:103DC0006A68944202D92A68002AF7D11A4A92688E
:103DD00095422CD01E6808362A681A606B681B1B37
:103DE000102B08D92819420701D072B6FEE74360AC
:103DF0006C60FFF797FF69680F4A13695B1A1361DC
:103E0000D268934201D20C4AD3600B4B5B690B43DF
:103E10006B6000232B60FFF783FD730709D072B638
:103E2000FEE70026F7E70026F5E70026F3E7002681
:103E3000F1E7300070BDC046200F002070B50028AB
:103E400020D00500083D6B680F4A52691A4201D123
:103E500072B6FEE7010008390968002901D072B680
:103E6000FEE70838040093434360FFF7D1FC636822
:103E7000054A11698C46634413612800FFF752FF1D
:103E8000FFF74EFD70BDC046200F002030B59BB03F
:103E900005000C006422002101A800F082FB0A4BFF
:103EA00018682300642201A9FFF744FAA02807D06C
:103EB000290001A801F010F80028F0D0012000E04E
:103EC00000201BB030BDC046480F002070B5050073
:103ED0000C001600FCF720FA82B2054B186823008C
:103EE0002900FFF7B5F921003000FFF7CFFF70BDC3
:103EF000480F002010B59AB00A4C2200FA21490060
:103F00000948FFF7E3FF094B094A0A4901A800F0F5
:103F1000C1FF2200FA21C90001A8FFF7D7FF1AB09C
:103F200010BDC046E46A0008EC6A0008FC6A00089C
:103F3000086B00081C6B0008014B18607047C046F6
:103F4000480F002030B5C3B00C1C151CFCF774F9E9
:103F500020AB082200F0D2FA201CFCF76DF91EAB52
:103F6000082200F0CBFA1CAC281CFCF765F92300F2
:103F7000082200F0C3FA00941EAB20AA154922A81B
:103F800000F088FF144A15491548FFF79FFF642287
:103F9000002103A800F005FB22A8FCF7BDF90200F0
:103FA000104903A800F076FF0F4CFA256D0022009F
:103FB000290003A8FFF78AFF0C4A290022A8FFF76F
:103FC00085FF2200FA2189000948FFF77FFF43B0EF
:103FD00030BDC046346B0008E46A000810270000BA
:103FE000A06B0008D46B0008E46B0008E86B0008C5
:103FF000F06B000810B588B0134B5969802080021F
:10400000014359615A6902400192019A5A6980211B
:10401000C9020A435A615B690B400293029B9024D8
:10402000E405002280212000FEF7A4F980230393F9
:104030007F3B049300230593069303A92000FEF71A
:10404000D3F808B010BDC0460010024010B50748B4
:10405000FFF772FFFFF74EFF054A06490648FFF7D4
:1040600071FF0120FFF713FAFBE7C046E80F0020BD
:1040700000C080440000BE420000B84110B5026894
:10408000034B9A4200D010BDFEF738F8FBE7C0465C
:10409000002C0140FEE7000010B51648164B0360E7
:1040A000164B4360002383600122C26003614361B9
:1040B0008361C3610362FEF763F900280CD100211C
:1040C0000C48FEF7C3F900280AD100210948FEF781
:1040D000E9F9002808D110BDF2210948FFF7DAFFFD
:1040E000F9210748FFF7D6FF802149000448FFF770
:1040F000D1FFC046500F0020005400400E090020A0
:10410000006C000810B51748174B0360174B43604D
:10411000002383600122C260036143618361C36144
:104120000362FEF72DF900280CD100210D48FEF79F
:104130008DF900280BD100210A48FEF7B3F90028B9
:104140000AD110BD8A2149000948FFF7A3FF1C21AD
:10415000FF310748FFF79EFF912149000448FFF710
:1041600099FFC0469C0F0020005800400E09002017
:10417000006C000810B50D480D4B0360E1235B0295
:10418000436000238360C36003610C22426183614A
:10419000C36103624362FEF7EDFF002800D110BD4A
:1041A0003821FF310348FFF775FFC046E80F0020B4
:1041B00000380140006C000800B595B00223089358
:1041C000013B0B930F330C930023109308A8FEF7C9
:1041D00093F9002828D1072304930023059306931D
:1041E0000793002104A8FEF7E3FB002820D1212338
:1041F00000930023029303936846FEF7B5FC002862
:104200001AD1FEF77FFCFA218900FBF789FFFDF741
:10421000BFFF0420FDF7D8FF002203210120404208
:10422000FDF77AFF15B000BDBF210548FFF732FF4B
:10423000CC210348FFF72EFFD4210148FFF72AFFC6
:10424000006C000830B587B0FDF748FFFFF7B4FFFA
:10425000FFF7D0FEFFF720FFFFF754FFFFF78AFFBD
:1042600001A8074903000A0032CA32C312CA12C3A6
:104270000021FFF7F2F8034B1860FFF7E9F8FEE7BB
:10428000306A00084C0F002000B583B0124B9969CA
:1042900001221143996199690A400092009ADA69F2
:1042A000802149050A43DA61DB690B400193019BD8
:1042B0000022002105204042FDF72EFF00220321AD
:1042C00002204042FDF728FF002203210120404246
:1042D000FDF722FF03B000BD0010024000B589B019
:1042E00003681C4A934204D01B4A934219D009B078
:1042F00000BDC0230393AE3B0493113B05930322FF
:104300000692079303A91548FDF76EFF144AD16979
:10431000802080030143D161D36903400193019B55
:10432000E5E7C0231B01039312230493113B05937C
:1043300003220692079303A90848FDF755FF084A90
:10434000D1698020C0030143D161D3690340029346
:10435000029BCCE700540040005800400004004895
:104360000010024000B587B00268104B9A4201D09D
:1043700007B000BD0E4A91698020C00101439161E0
:10438000936903400093009BC023DB000193022349
:1043900002930023039303330493023B059301A983
:1043A0009020C005FDF720FFE2E7C046003801403D
:1043B0000010024000B587B0010000220D20FDF77B
:1043C000ABFE0D20FDF7DAFE134A91698020000153
:1043D00001439161936903400093009B01A902A8E6
:1043E000FEF7A6FBFEF794FB0C49FBF799FE431E74
:1043F0000B480C4A02600C4AC26043600023036110
:104400008360FEF745FD002802D0012007B000BD03
:104410000348FEF736FCF9E70010024040420F0067
:1044200058100020002C0140E70300007047FEE711
:1044300010B5FFF734F810BD10B50248FEF730FC98
:1044400010BDC04658100020114B1A6801210A43C4
:104450001A605A680F4802405A601A680E480240B3
:104460001A601A680D4802401A605A680C480240E7
:104470005A60DA6A0F208243DA621A6B09480240F6
:104480001A635A6B8A435A6300229A607047C04687
:10449000001002400CB8FF08FFFFF6FEFFFFFBFF15
:1044A000FFFFC0FFECFEFFFF0D4885460D480E499B
:1044B0000E4A002302E0D458C4500433C4188C427E
:1044C000F9D30B4A0B4C002301E013600432A242E3
:1044D000FBD3FFF7B9FF00F037F8FFF7B3FEFEE7B5
:1044E0000020002000000020D8010020806E00087D
:1044F000D80100209C100020FEE70000F0B51C0051
:1045000085B000231500002206000F00FCF716F806
:104510002300002803D02D23013D2370631C0022BB
:104520000849039267320292019300953B003200E2
:10453000086801F0CFFB431E984140420440200030
:1045400005B0F0BD0800002070B500260C4D0D4CE4
:10455000641BA410A64209D1002602F04BFA0A4DB2
:104560000A4C641BA410A64205D170BDB300EB58E1
:1045700098470136EEE7B300EB5898470136F2E76B
:10458000786E0008786E0008786E00087C6E00086F
:10459000002310B59A4200D110BDCC5CC454013345
:1045A000F8E703008218934200D170471970013375
:1045B000F9E7F0B58BB014001D1E129953DA802470
:1045C00024061B191D0014002D230B702023149E9C
:1045D00003229E43462E07D03300453B59424B41B0
:1045E0001099013ACB18109309AB049308AB0393CD
:1045F000139B00920293109B220001932B0000F06A
:1046000007FD0700472E02D1119BDB0724D5109B25
:10461000FB180793462E14D13B78302B0CD1002287
:10462000002320002900FBF783FF002804D1012389
:10463000109A9B1A139A1360139B079A1B68D3183E
:1046400007930022002320002900FBF771FF30228E
:1046500000280DD0079B09933800099B159ADB1B96
:1046600013600BB0F0BD0023AFE7591C09911A701D
:10467000099B07999942F8D8EEE7F0B52B2385B04E
:1046800007000C000270861C002901DA2D234C4221
:104690007B70092C23DD02ABDD1D6B1E20000A217F
:1046A0000193FBF731FF6B1E3031197020000A2196
:1046B000FBF744FE040009280ADC023D30342C706C
:1046C00002AB07333000AB4204D8C01B05B0F0BDCD
:1046D000019DE2E72B78013533700136F0E7302396
:1046E000E4183370B01C7470EFE70000F0B595B0BB
:1046F0000C000A920B931A9D099001F0B9FB036814
:1047000018000D93FBF708FE0023129323680E9008
:104710000C930C99277E2B680722C90547D59B1857
:1047200093431A0008322A601A685B68A264E36443
:104730000122E56CA66C6B005B080F935242A74BFD
:1047400030000F99FDF7FCFB002800D006E20122A3
:10475000A24B524230000F99FBF7FAFE002800D01E
:10476000FCE10022002330002900FBF7E7FE0028CF
:1047700003D023002D2243331A70994D472F00D8C0
:10478000984D032300260C9A236101339A4322603B
:104790000B9B13AA009321000A9B099800F0F2F9E1
:1047A000431C00D09CE00120404215B0F0BD07330F
:1047B000B6E780236268DB00511C45D10732626096
:1047C0000C9A0021134312AA059211AA03922322E4
:1047D00023600691019308A963685218029200931E
:1047E00032002B0004970998FFF7E3FE20233A00DC
:1047F00005009A43472A07D1119BDA1C02DB626845
:1048000093425BDD023FFFB21199652F3BD8200038
:1048100001393A0050301191FFF72FFF129A06002C
:1048200083182361012A02DC2268D20701D50133F3
:104830002361232308AA9B181B78002BA8D02300F0
:104840002D2243331A70A3E7672F01D0472FB7D12A
:10485000002A16D00C9908A80B430021069112A932
:10486000059111A903912321091823600193009256
:104870002B000497029132000998FFF79AFE050079
:10488000BAE701229BE7662F19D1636800290CDD86
:104890002161002B02D12268D20702D501335B18B7
:1048A0002361119B0026A365C3E7002B03D10122DE
:1048B0002168114200D09A1C2261F2E76727119B00
:1048C0001298834205DB22682361D207E9D50133C0
:1048D000E6E70122002B01DC9218D21A1218EBE74E
:1048E0002268530508D423692A000A9909980B9D68
:1048F000A847431C29D156E7652F00D8DCE0A06CFF
:10490000E16C00220023FBF713FE002835D00123C1
:10491000354A0A9909980B9DA847431C00D142E7E4
:10492000119B129A934202DB2368DB070DD50B9D86
:104930000E9B0D9A0A990998A8470025431C00D19F
:1049400031E7129B013B9D420BDB236800259B074F
:1049500000D5FDE0139BE068984200DB25E71800D6
:1049600023E7220001231A320A9909980B9EB047C7
:10497000431C00D117E70135E3E7119B002B35DC21
:104980000123194A0A9909980B9EB047431C00D18C
:1049900009E7119B002B05D1129B002B02D1236844
:1049A000DB07D2D50B9E0E9B0D9A0A990998B0474A
:1049B0000026431C00D1F6E6119B5B429E4201DBC0
:1049C000129B91E7220001231A320A9909980B9F42
:1049D000B847431C00D1E6E60136EDE7FFFFEF7F65
:1049E000206C00081C6C00082C6C0008A36D129E43
:1049F0009E4200DD1E00002E35DC00230C93F343A5
:104A0000DB170F930F9BA76D0C9A3340FB1A9A424A
:104A100032DB119B129A93423CDB2368DB0739D4CB
:104A2000129E119AF31BB61A9E4200DD1E00002E44
:104A300039DCF7430025FB170C93119A129B0C9954
:104A40009B1A32000A409B1A9D4200DB7DE7220040
:104A500001231A320A9909980B9FB847431C00D1C9
:104A6000A1E60135E9E733002A000A9909980B9F6E
:104A7000B847431CC1D196E6220001231A320A9995
:104A800009980B9FB847431C00D18CE60C9B01335F
:104A90000C93B7E70E9B0D9A0A9909980B9EB047A5
:104AA000431CBDD17FE6EA1933000A9909980B9D92
:104AB000A847431CBDD176E6129B012B02DC0123E3
:104AC0001A4238D001232A000A9909980B9FB84747
:104AD000431C00D167E60E9B0D9A0A9909980B9F1B
:104AE000B847431C00D15EE6A06CE16C00220023B5
:104AF000FBF71EFD002808D00025129B013B9D42BC
:104B00000DDB220033005032EFE6129B6A1C013BA2
:104B10000A9909980B9DA847431CF2D143E622004D
:104B200001231A320A9909980B9FB847431C00D1F8
:104B300039E60135E1E72A00EAE7220001231932CC
:104B40000A9909980B9EB047431C00D12BE601350A
:104B5000E368139A9B1A9D42EFDBFBE632002B00C1
:104B600030002900FDF7ECF9002800D121E6034DC3
:104B7000472F00D905E6024D03E6C046286C000821
:104B8000246C0008F7B5150001938A680B69009042
:104B90000C00934200DA130022002B60433212789B
:104BA000002A01D001332B6023689B0602D52B68B5
:104BB00002332B60062723681F4027D0230043338E
:104BC0001B785A1E93412268920630D42200019924
:104BD00043320098089EB047431C25D00623206826
:104BE0002A68E16803400025042B03D18D1AEB43AA
:104BF000DB171D40A3682269934201DD9B1AED1863
:104C00000027BD4220D1002010E00137E3682A6868
:104C10009B1A9F42D2DA220001231932019900988F
:104C2000089EB047431CF0D101204042FEBD302019
:104C3000E1184331087021005A1C45310978A21847
:104C4000433202331170C1E7220001231A32019965
:104C50000098089EB047431CE6D00137D1E700001A
:104C6000F0B58BB006920A00433207930590049288
:104C70000A7E0C00109B6E2A00D18FE017D8632AA1
:104C80002CD008D8002A00D199E0582A54D0260008
:104C90004236327029E0642A01D0692AF7D12168AE
:104CA0001A68080623D5111D1960156825E0732AB6
:104CB00000D188E008D86F2A29D0702AE7D12022B5
:104CC00009680A43226003E0752A20D0782ADED1E1
:104CD00022007821453211706C4A30E00E001A68CB
:104CE0004236111D196013683370012379E04906BB
:104CF000D9D5111D19600023D55E002D03DA2D23AF
:104D0000049A6D421370624B0A2703932FE02068C8
:104D10001968050603D5081D18600D6805E04006F2
:104D2000F9D50D68081D1860ADB2594B08270393DB
:104D30006F2A18D00A2716E045310A70544A0392A8
:104D40001A682168101D18601568080622D5CB075F
:104D500002D52023194321601027002D03D12023E1
:104D600022689A4322602300002243331A7063684A
:104D7000A360002B5CDB0422216891432160002D9D
:104D800058D1049E002B64D02600039B42361B782A
:104D900033705EE04806DAD5ADB2D8E709681A6824
:104DA000080605D5111D1960136862691A6006E0CE
:104DB0004906F7D5111D19601368A28A1A800023CD
:104DC000049E236154E01A68111D196016680021C1
:104DD0006268300001F062F8002801D0801B60603A
:104DE000636823610023049A137041E02369320051
:104DF00006990598079DA847431C43D023680025C2
:104E00009B070FD4099BE06898423DDA18003BE00D
:104E100022000123193206990598079EB047431CCA
:104E200030D00135E368099A9B1A9D42F0DBE9E72F
:104E3000002DA9D0049E28003900FBF7F7F9039B49
:104E4000013E5B5C280033703900FBF769F9051EF1
:104E5000F1D1082F09D12368DB0706D563682269E1
:104E6000934202DC3023013E3370049B9B1B236181
:104E7000079B09AA00932100069B0598FFF782FE75
:104E8000431CB3D1012040420BB0F0BD3F6C000881
:104E90002E6C00080EB410B59DB002A902900861F6
:104EA0000B48822488604861012040421FABC881C2
:104EB000084804CBA400006801938C8101F034FC05
:104EC0000023029A13701DB010BC08BC03B0184731
:104ED000FFFFFF7F0800002010B5020000780028C7
:104EE00004D1097800290DD010BD013210780028B6
:104EF000FAD00023C85C002804D0D45C8442F4D1EA
:104F00000133F7E71000EFE7F0B503690C6989B0EA
:104F10000700059100269C426DDC0B00013C143318
:104F2000A50003935B1904930300143302935D19E6
:104F3000049B28681B68591C0193FBF7F1F801904A
:104F4000B0422DD0039B02989C460696624608CA42
:104F50009446019A99B251431B0C534389190A0C88
:104F60009B18079302881E0C069B89B2D21803680F
:104F7000521A190C6B469B8BCB1A11145B1819141F
:104F800092B21B041A43049B069104C06345DDD210
:104F90002B68002B04D1029B043DAB422ED33C6115
:104FA0000599380001F097F9002823DB0025019BC3
:104FB000029801330399019308C9028855199AB2DE
:104FC000AA1A05681B0C2D0CEB1A15145B191D147D
:104FD00092B21B04134308C0049B8B42ECD2029A8A
:104FE000A300D3181A68002A04D1029A043B9A42FB
:104FF00009D33C61019E300009B0F0BD2B68002B45
:10500000CDD1013CC7E71A68002AF2D1013CECE798
:10501000F0B516001F00446A9DB00490259D0696C9
:105020000797002C08D1102000F02EFF049B586237
:10503000446084600460C460049B5B6A1968002952
:105040000BD05A68012393404A608B60049800F0AB
:1050500068FF0022049B5B6A1A60079B002B1FDA23
:1050600001232B607B005B080793079CB74B220052
:1050700019931A409A4216D1B54B249A1360069B95
:10508000002B03D1240301D100F091FDB14B269AEE
:105090000A93B14B002A01D000F08FFD00F08FFD84
:1050A00000232B60E1E7069E079F002200233000CB
:1050B0003900FBF73DFA051E0ED00123249A136038
:1050C000A64B269A0A93002A01D100F078FDA44A43
:1050D00026990A6000F073FD1AAB01931BAB009395
:1050E00032003B00049801F073F9630005905B0DFA
:1050F00000D17FE03A039B4C120B144321009A4AE3
:10510000300018959E180022984BFCF703FC984A33
:10511000984BFCF77FF9984A984BFBF737FA040055
:1051200030000D00FCF760FF954A964BFCF772F9D2
:1051300002000B0020002900FBF728FA04000D00F4
:10514000FCF71EFF00220390002320002900FBF73C
:10515000F5F900280ED00398FCF746FF0B0002007B
:1051600029002000FBF7E4F9030058425841039B53
:105170001B1A039301231693039B162B0FD8824906
:10518000DB00C91808684968069A079BFBF7EAF92B
:1051900000284BD0039B013B0393002316931A9BDB
:1051A0009E1B00230B933300013B0C9304D501237A
:1051B0009B1B0B9300230C93039B002B38DB039A60
:1051C0000C9B944663440C9300230F920893229BFC
:1051D0000125092B00D991E0052B02DD0025043BB8
:1051E0002293229B981E032800D991E0FBF79CF89C
:1051F000828429761A9B1B9A9E18644BF218202AE7
:105200000FDD634B0698F318D84040239B1A9C404F
:105210002043FCF72BFF01235E4C013E0919189334
:1052200071E7202306989B1A9840F2E71690B6E79C
:105230000B9B039A9B1A0B935342089300230F93E3
:10524000C5E701230E93239B002B65DD1F000D9303
:10525000049A546A002262600432110014319942A7
:105260005FD96168049800F024FE049B20605B6AAB
:105270001B680A930E2F00D905E1002D00D102E131
:10528000069B079C14931594039B002B00DC85E080
:105290001A000F213C4B0A40D2009B185C681B6827
:1052A00010931194039B02241D11EB060AD53A4B6F
:1052B0000D401A6A5B6A14981599FBF777FC069003
:1052C00007910134344E002D30D1109A119B06986D
:1052D0000799FBF76BFC069007917AE00123239A6C
:1052E0000E939446039B63445F1C0D933B1EAFDCFF
:1052F0000123ADE70023A5E70023F0E700230E9587
:105300002293013B00220D931F00133323929FE74A
:1053100001230E93023BF5E701230D931F001A00B2
:10532000F4E7616852000131616096E701231D4294
:1053300008D010981199E41832687368FCF76AF87D
:10534000109011916D100836BDE7C0460000F07F47
:105350000F270000596C00085C6C00082C6C0008DA
:105360002D6C00080000F03F01FCFFFF0000F83F3B
:1053700061436F63A787D23FB3C8608B288AC63F5B
:10538000FB799F501344D33F886C0008320400001F
:1053900012040000000010FE606C0008039B022451
:1053A000002B16D0149815995D420F23CA4A2B4042
:1053B000DB00D3181A685B68FCF72CF80023069012
:1053C0000791C64E2D11002D00D08CE0002B00D08F
:1053D00081E7169B002B00D191E0069A079B109263
:1053E0001193109811990022BD4BFBF7A7F80028E4
:1053F00000D184E0002F00D181E00D9B002B3EDD29
:1054000010981199039B00225E1EB64BFCF702F820
:10541000069007910D9D01342000FCF7E5FD069AEA
:10542000079BFBF7F7FF0022AF4BFBF7AFF812909B
:105430001391129B139CAD4A10931194139B9C18CB
:105440001194002D5ED1069807990022A84BFCF715
:1054500061FA109A230006900791FBF783F8002861
:1054600000D001E3A3481399844661440B000698D9
:105470000799109AFBF762F8002800D0E8E2149B25
:10548000159C069307941B9B002B00DA57E1039AA7
:105490000E2A00DD53E1904BD2009B185C681B681C
:1054A00008930994239B002B00DBCEE0002F00DD46
:1054B000CBE000D0CFE20898099900228C4BFBF793
:1054C000A9FF069A079BFBF757F83E0008970028AC
:1054D00000D0A4E20A9B0A9A5D1C31231370039B3F
:1054E000013303939FE20122154205D0A4183268CC
:1054F0007368FBF78FFF01236D10083663E7039E87
:105500003D0089E70A9A691E521917920E9A724B4A
:10551000C900002A4AD05B181A685B6800207649E7
:10552000FBF744FB109A119BFCF7F4F90A9B1090CF
:105530001191129306980799FCF722FD0400FCF7DD
:1055400053FD02000B0006980799FCF7E3F9129B44
:1055500030345D1C1C70109A119B06900791FAF76D
:10556000EDFF002865D1069A079B00205C49FCF7F7
:10557000D1F9109A119BFAF7E1FF002800D0BEE0A4
:10558000179B9D4200D17AE7109811990022554B44
:10559000FBF740FF00221090119106980799514B9C
:1055A000FBF738FF129506900791C3E75918086872
:1055B0004968109A119BFBF72DFF109011910A9CDE
:1055C000179D06980799FCF7DBFC1290FCF70CFD81
:1055D00002000B0006980799FCF79CF9129B0690B5
:1055E000079130332370179B01340022A34224D14A
:1055F000414B10981199FAF7C9FF02000B00069869
:105600000799FAF7AFFF002800D078E0109A119BB5
:1056100000203949FCF77EF902000B000698079933
:10562000FAF78CFF002800D129E76B1E1A78302A80
:1056300001D003963FE01D00F7E706980799294B34
:10564000FBF7E8FE06900791BBE70A9E089A099BC4
:1056500006980799FBF7AAFAFCF792FC0400FCF7FE
:10566000C3FC089A099BFBF7D5FE0B0002000698C5
:105670000799FCF74FF92300303333700A9B751CF0
:10568000EB1A9F424CD102000B00FAF77FFF060095
:105690000F0002000B0008980999FAF74FFF002845
:1056A0002CD10898099932003B00FAF741FF0028F5
:1056B00001D0E30722D40599049800F032FC0023BE
:1056C0002B70039B249A01331360269B002B00D17F
:1056D00075E21D6073E2C046886C0008606C0008CB
:1056E0000000F03F0000244000001C400000C0FC0F
:1056F000000014400000C07C0000E03F039E6B1ED1
:105700001A78392A06D10A9A9A4207D1302313709F
:10571000130001361A7801321A708AE71D00EEE78D
:105720000022CF4BFBF776FE002200230690079164
:105730002E00FAF7FDFE002800D187E7BBE70E9A9E
:10574000002A00D187E0229A012A6EDC189A002AEA
:1057500067D0C44A9B18089D0B9C0B9A0121D21854
:105760000B920C9A0498D3180C9300F078FC060066
:10577000002C0EDD0C9B002B0BDD0C9A23009442B9
:1057800000DD13000B9AE41AD21A0B920C9AD31A6A
:105790000C93089B002B1ED00E9B002B5FD0002D7E
:1057A00011DD31002A00049800F0F2FC059A010096
:1057B0000600049800F05CFC05991090049800F035
:1057C000B0FB109B0593089B5A1B04D005990498C5
:1057D00000F0DEFC05900121049800F040FC0F9BD6
:1057E0000890002B3DDD1A000100049800F0D0FC69
:1057F000229B08900025012B3BDC0025069BAB4239
:1058000033D1079B1B03AB422FD1199B079A13423D
:105810002BD00B9B013501330B930C9B01330C9365
:1058200023E036231A9A9B1A95E7089B7D1EAB420C
:1058300006DB5D1B002F0BDA0B9BDC1B00238CE7C8
:10584000089B0895EA1A0F9B00259B180F93F1E718
:105850000B9C3B0081E7089D0B9C0E9E88E7089AF5
:10586000B4E7229B0025012BC7DD0F9B0120002BF5
:105870000BD0089B089A1B690F9303339B00D31826
:10588000586800F0A3FB2023181A0C9BC0181F2394
:10589000184000D1ABE001331B1A042B00DC9BE065
:1058A0001C23181A0B9B24181B180B930C9B1B18FA
:1058B0000C930B9B002B05DD1A000599049800F052
:1058C000B9FC05900C9B002B05DD1A000899049883
:1058D00000F0B0FC0890169B002B00D189E00899DD
:1058E000059800F0F8FC002800DB82E0039B0A2208
:1058F000013B039305990023049800F02BFB0E9BBA
:105900000590002B00D15DE1002331000A220498AC
:1059100000F020FB0D9B0600002B02DC229B022BDB
:105920006DDC002C05DD31002200049800F082FCC3
:1059300006003000002D11D07168049800F0B9FA0B
:105940003100040033690C319A1C92000C30FEF7D0
:105950001FFE01222100049800F06CFC0D9F0A9BA1
:10596000013F0B93DB19370006000F930899059848
:10597000FFF7CAFA39000D900400059800F0ABFC5F
:1059800032000E900899049800F0BEFC01230C939D
:10599000C36830340500002B04D10100059800F0E5
:1059A0009AFC0C902900049800F0BBFA0C9B229AF8
:1059B000134300D089E0069A0133134200D084E0FB
:1059C000392C00D1A3E00E9B002B01DD0D9C31345E
:1059D0000B9B5D1C1C7027E0042B00D169E70B9A20
:1059E0001C33D2180B920C9AE418D31860E703000A
:1059F000F5E7002F3CDC229B022B39DD0D970D9B38
:105A0000002B0CD108990522049800F0A3FA089005
:105A10000100059800F05FFC002800DD5AE5239B9B
:105A20000A9DDB43039300270899049800F079FA54
:105A3000002E00D13FE6002F05D0B74203D0390039
:105A4000049800F06EFA3100049800F06AFA32E629
:105A500008952E00E3E7002308931E00DFE7C04609
:105A60000000244033040000039608952E0031E521
:105A70000E9B0D97002B00D053E70A9D08990598BF
:105A8000FFF742FA0A9B30300D9A28700135040066
:105A9000EB1A9A4278DC151E00DC012500270A9BD0
:105AA0005D1905990122049800F0C4FB089905903E
:105AB00000F011FC00282FDC01D1E3072CD46B1E71
:105AC0001A78302AB0D11D00F9E70E9B002B07DBB6
:105AD0001D00229B1D4326D10123069A134222D189
